:020000040800F2
:1000000068070020CD010008AB030008A303000827
:10001000A70300087D0200086F110008000000001F
:10002000000000000000000000000000B909000806
:100030008102000800000000A1080008810B0008F0
:10004000E7010008E7010008E7010008E7010008F0
:10005000E7010008E7010008E7010008E7010008E0
:10006000E7010008E7010008E7010008E7010008D0
:10007000E7010008E7010008E7010008E7010008C0
:10008000E7010008E7010008E7010008E7010008B0
:10009000E7010008E7010008E7010008E7010008A0
:1000A000E7010008E7010008E7010008E701000890
:1000B000E7010008E7010008E7010008E701000880
:1000C000E7010008E7010008E7010008E701000870
:1000D000E7010008950E0008E70100081D0F000861
:1000E000E7010008E7010008E7010008E701000850
:1000F000E7010008E7010008E7010008E701000840
:10010000E7010008E7010008E7010008E70100082F
:10011000E7010008E7010008E7010008E70100081F
:10012000E7010008E7010008E7010008E70100080F
:1001300000F002F800F03AF80AA090E8000C8244BF
:100140008344AAF10107DA4501D100F02FF8AFF29C
:10015000090EBAE80F0013F0010F18BFFB1A43F0A5
:10016000010318471017000030170000103A24BF91
:1001700078C878C1FAD8520724BF30C830C144BF0C
:1001800004680C607047000000230024002500264E
:10019000103A28BF78C1FBD8520728BF30C148BFEA
:1001A0000B6070471FB51FBD10B510BD00F033F8D0
:1001B0001146FFF7F7FF01F001F800F051F803B422
:1001C000FFF7F2FF03BC00F0D4FF000009488047AE
:1001D00009480047FEE7FEE7FEE7FEE7FEE7FEE729
:1001E000FEE7FEE7FEE7FEE704480549054A064B41
:1001F00070470000850B00083101000868010020ED
:1002000068070020680300206803002070477047DB
:10021000704770477047754600F02CF8AE460500F1
:100220006946534620F00700854618B020B5FFF711
:10023000DBFFBDE820404FF000064FF000074FF015
:1002400000084FF0000B21F00701AC46ACE8C009F4
:10025000ACE8C009ACE8C009ACE8C0098D467047FD
:1002600010B50446AFF300802046BDE81040FFF70C
:10027000A6BF0000004870470401002000BFFEE751
:1002800070472DE9F041024600250026002000239A
:100290000024002791F803C00CF00F0591F803C06B
:1002A0000CF0100CBCF1000F03D091F802C04CEA26
:1002B000050591F800C0BCF1000F31D01468002092
:1002C0002BE04FF0010C0CFA00F3B1F800C00CEA7F
:1002D00003069E4220D183004FF00F0C0CFA03F767
:1002E000BC4305FA03FC4CEA040491F803C0BCF1DA
:1002F000280F06D14FF0010C0CFA00FCC2F814C014
:100300000AE091F803C0BCF1480F05D14FF0010C91
:100310000CFA00FCC2F810C0401C0828D1D31460AD
:10032000B1F800C0BCF1FF0F34DD546800202EE0AE
:1003300000F1080C4FF0010808FA0CF3B1F800C006
:100340000CEA03069E4221D183004FF00F0C0CFAF9
:1003500003F7BC4305FA03FC4CEA040491F803C01C
:10036000BCF1280F05D100F1080C08FA0CF8C2F80E
:10037000148091F803C0BCF1480F07D100F1080CBC
:100380004FF0010808FA0CF8C2F81080401C082849
:10039000CED35460BDE8F0810AB1016100E0416153
:1003A000704700BFFEE700BFFEE7704770B5002151
:1003B00000230F22C47804B3154C246804F4E064CD
:1003C000C4F5E064210AC1F10403CA40447804FA88
:1003D00003F184781440214309010E4C0678A1559D
:1003E000047804F01F050124AC4005786D11AD00C0
:1003F00005F1E025C5F8004109E0047804F01F0587
:100400000124AC40044D0678761145F8264070BDB5
:100410000CED00E000E400E080E100E0024901436F
:10042000024A1160704700000000FA050CED00E080
:1004300070B500240EE00021204600F0F0F8002501
:1004400004E0002000F08DF9681CC5B2802DF8DBB7
:10045000601CC4B2082CEEDB70BD000008B50121A1
:10046000102000F02FFA14208DF8030003208DF8DF
:1004700002004FF48070ADF8000069460A48FFF7AB
:1004800000FF4FF40070ADF8000069460648FFF722
:10049000F8FE012211020448FFF77EFF01225102FB
:1004A0000148FFF779FF08BD0010014070B505460F
:1004B000002415E08020204100EA05024FF400717D
:1004C0000E48FFF769FF012211020C48FFF764FF95
:1004D00000224FF480710948FFF75EFF601CC4B230
:1004E000082CE7DB012211020448FFF755FF002228
:1004F0004FF480710148FFF74FFF70BD00100140BD
:1005000010B5012251020A48FFF746FF01221102ED
:100510000748FFF741FF00224FF400710448FFF73E
:100520003BFF00224FF480710148FFF735FF10BDFB
:100530000010014010B500224FF400710648FFF78B
:100540002BFF012211020448FFF726FF012251026E
:100550000148FFF721FF10BD0010014070B50024D5
:1005600006E0002500E06D1CB5F57A7FFBD3641C26
:10057000B4F57A7FF5D3FFF771FFAE2000F0E1F814
:10058000D52000F0DEF8802000F0DBF8A82000F095
:10059000D8F83F2000F0D5F8D32000F0D2F80020A2
:1005A00000F0CFF8402000F0CCF8A12000F0C9F80E
:1005B000C82000F0C6F8DA2000F0C3F8122000F0DE
:1005C000C0F8812000F0BDF8CF2000F0BAF8D920A3
:1005D00000F0B7F8F12000F0B4F8DB2000F0B1F83B
:1005E000302000F0AEF8A42000F0ABF8A62000F018
:1005F000A8F88D2000F0A5F8142000F0A2F8AF2094
:1006000000F09FF8FFF714FF70BD10B502460120FF
:1006100000E050430B1EA1F10101FAD110BD70B5ED
:1006200005460C4645F0B00000F08BF8102141EA79
:10063000141000F086F804F00F0000F082F870BD8E
:100640002DE9F04105460E461746721ED206110EE0
:100650006A1E5206100EFFF7E2FF002409E0A7F120
:100660002001134A02EB0111085D00F07AF8601CCA
:10067000C4B2082CF3DB721ED206110E6A1E0123CF
:1006800003EB4202D0B2FFF7CAFF00240BE0A7F150
:100690002001074A02EB011204F10801505C00F04E
:1006A00060F8601CC4B2082CF1DBBDE8F0810000EA
:1006B000841200082DE9F0478146884615461E46FB
:1006C000002D06DB2B2241464846FFF7B9FF2F4697
:1006D00005E02D2241464846FFF7B2FF6F42002455
:1006E00017E0301B411E0A20FFF78FFFB7FBF0F029
:1006F0000A21B0FBF1F201FB120000F1300A08EB15
:100700000400401CC1B252464846FFF799FF601CE6
:10071000C4B2B442E5DBBDE8F0872DE9F0410746FD
:100720000E461546002407E02A5D3019C1B238464E
:10073000FFF786FF601CC4B2285D0028F4D1BDE835
:10074000F08110B50446FFF7DBFE7820FFF7AEFE20
:100750000020FFF7ABFE2046FFF7A8FEFFF7EAFEFA
:1007600010BD10B50446FFF7CBFE7820FFF79EFEC4
:100770004020FFF79BFE2046FFF798FEFFF7DAFECA
:1007800010BD000010B50446A1B2024800F02CFBD9
:1007900010BD00000008004010B50446A1B2044896
:1007A00000F022FBA1B2024800F020FB10BD0000C7
:1007B000000C004000B589B00121082000F072F85B
:1007C0000121042000F06EF80121042000F07AF8E5
:1007D0000121082000F076F818208DF8230003206E
:1007E000ADF820008DF8220008A92948FFF749FD3F
:1007F00018208DF823004020ADF8200003208DF84C
:10080000220008A92348FFF73CFD234800F03EFAE8
:10081000224800F03BFA0020ADF81A00ADF81600AF
:1008200040F2CF70ADF8180040F2CF20ADF81400C0
:1008300000208DF81C0005A9184800F0D9FA05A978
:10084000154800F0D5FA01A800F0C4FA0020ADF870
:100850000C006020ADF804000120ADF80600002077
:10086000ADF80A0001A90C4800F016FA01A90A48DF
:1008700000F05EFA01A9094800F00EFA01210748CC
:1008800000F0F8F90121044800F0F4F909B000BDC6
:1008900000080140000C0140000C0040000800402E
:1008A0007047000029B1064AD2690243044BDA615D
:1008B00004E0034AD2698243014BDA6170470000C9
:1008C0000010024029B1064A92690243044B9A6122
:1008D00004E0034A92698243014B9A617047000029
:1008E0000010024030B500210022002400232D4DCD
:1008F0006D6805F00C0121B1042905D0082923D128
:1009000005E0294D056022E0274D05601FE0254DDB
:100910006D6805F47012234D6D6805F4803402256E
:1009200005EB92421CB9214D554305600BE01D4D6E
:100930006D6805F400351DB11C4D5543056002E09E
:10094000194D5543056002E0174D056000BF00BF1B
:10095000144D6D6805F0F0010909154D6B5C0568D3
:10096000DD4045600F4D6D6805F4E061090A104DEA
:100970006B5C4568DD4085600A4D6D6805F460512B
:10098000C90A0B4D6B5C4568DD40C560054D6D685F
:1009900005F44041890B074D6B5CC568B5FBF3F569
:1009A000056130BD0010024000127A0000093D00D0
:1009B00026000020360000207047000000B587B0F8
:1009C00001218804FFF76EFF01210820FFF77AFF5D
:1009D00004208DF81B004002ADF8180003208DF8AC
:1009E0001A0006A92048FFF74CFC18208DF81B00C0
:1009F0004FF48060ADF8180003208DF81A0006A9A6
:100A00001948FFF73EFC4FF4E13002900020ADF8AA
:100A100014000C20ADF812000020ADF81000ADF865
:100A20000E00ADF80C0002A9104800F02FFB0122C7
:100A300040F225510D4800F004FB4FF4A060FFF791
:100A4000EDFC27208DF8040001208DF807008DF8BB
:100A500005008DF8060001A8FFF7A8FC0121034856
:100A600000F0B9FA07B000BD000C0140004800409A
:100A700010B500F001F810BD0CB5002001900090F9
:100A80003348006840F480303149086000BF304886
:100A9000006800F4003000900198401C019000981C
:100AA00018B90198B0F5A06FF1D12948006800F499
:100AB000003010B10120009001E00020009000986B
:100AC000012843D12348006840F010002149086004
:100AD0000846006820F0030008600846006840F0FF
:100AE000020008601A484068194948600846406892
:100AF00048600846406840F48060486008464068A6
:100B000020F47C1048600846406840F4E8104860D3
:100B10000846006840F08070086000BF0C4800681C
:100B200000F000700028F9D00948406820F0030068
:100B3000074948600846406840F00200486000BF2E
:100B40000348406800F00C000828F9D10CBD0000F3
:100B50000010024000200240042808D14FF0E0219C
:100B6000096941F004014FF0E022116107E04FF004
:100B7000E021096921F004014FF0E0221161704782
:100B80007047000010B51348006840F0010011499B
:100B9000086008464068104908400E494860084609
:100BA00000680E4908400B4908600846006820F4B8
:100BB000802008600846406820F4FE0048604FF43A
:100BC0001F008860FFF754FF4FF000600449086081
:100BD00010BD0000001002400000FFF8FFFFF6FE0D
:100BE00008ED00E010B5012204210948FFF7D4FB0D
:100BF000002208210648FFF7CFFB012210210448FC
:100C0000FFF7CAFB002220210148FFF7C5FB10BDFA
:100C10000008014010B5012208210948FFF7BCFB7C
:100C2000002204210648FFF7B7FB012220210448D7
:100C3000FFF7B2FB002210210148FFF7ADFB10BD0A
:100C40000008014008B501210420FFF73BFE1020F9
:100C50008DF803003C20ADF8000003208DF8020061
:100C600069460348FFF70DFBFFF7A4FD08BD000030
:100C70000008014021B1028842F00102028004E034
:100C800002884FF6FE731A400280704701894FF6C2
:100C9000F87211400181704770B5002400220023D2
:100CA000058C4FF6FE7635400584028C8388048BD4
:100CB0004FF68F752C40B51E2C400D882C43751EA9
:100CC0002A400D892A434D882A43144DA8420BD04F
:100CD000134DA84208D0134DA84205D0124DA8428A
:100CE00002D0124DA84213D14FF6F7752A404D8914
:100CF0002A434FF6FB752A408D882A434FF6FF653D
:100D00002B404FF6FF552B408D892B43CD892B432C
:100D100083800483CD888586028470BD002C0140C9
:100D200000340140004001400044014000480140BF
:100D300070B5002400220023058C4FF6EF76354075
:100D40000584028C8388048B48F6FF752C404FF68F
:100D5000FF452C400D884FF6FF7606EA05252C430B
:100D60004FF6DF752A400D8906EA05152A434D889E
:100D700006EA05152A43154DA84202D0144DA84293
:100D80001DD14FF67F752A404D894FF6FF7606EA52
:100D900005152A434FF6BF752A408D8806EA0515CA
:100DA0002A434FF6FF352B404FF2FF752B408D89BC
:100DB00006EA85052B43CD8906EA85052B4383800A
:100DC0000483CD880587028470BD0000002C01409B
:100DD000003401400021018041808180C180018177
:100DE00041818181C1817047818670470187704749
:100DF000002202881D4B98420ED01D4B98420BD00A
:100E0000B0F1804F08D01B4B984205D01A4B984246
:100E100002D01A4B984204D14FF68F731A404B8878
:100E20001A43174B984207D0164B984204D04FF6FE
:100E3000FF431A40CB881A4302808B8883850B8836
:100E400003850A4B98420BD0094B984208D00E4BB1
:100E5000984205D00D4B984202D00D4B984201D1DB
:100E60000B7A03860123838270470000002C014027
:100E7000003401400004004000080040000C004025
:100E800000100040001400400040014000440140B8
:100E90000048014010B540F225511D4800F0A7F868
:100EA00010B31B4800F05EF9C4B21A48008800F481
:100EB0000040C8B91748008800F4804060B10A2C8F
:100EC00003D000201349088020E01248008840F435
:100ED00000401049088019E00D2C06D10D4800880B
:100EE00040F480400B49088010E00A480088C0F3B5
:100EF0000D0009490C5407480088401C054908802A
:100F000008460088C72801DD0020088010BD0000C9
:100F100000380140240000203C00002010B540F2C1
:100F20002551224800F063F800283DD040F22551B9
:100F30001E4800F041F81D4800F014F904464C2CFE
:100F400002D100201A4908605D2C04D118480068BD
:100F50006430174908606B2C04D115480068643868
:100F6000134908607F2C05D112480078401E40B21A
:100F7000104908708A2C05D10E480078401C40B2F8
:100F80000C4908700B4890F90000012802DD01208F
:100F900008490870074890F90000B0F1FF3F02DAF5
:100FA000FF200449087000BF10BD00000048004049
:100FB000040000200000002010B50022002340F6AD
:100FC0006A14A14200D100BF0A1201249440A3B2C6
:100FD000DC43048010BD21B1828942F40052828139
:100FE00004E082894DF6FF731A408281704770B524
:100FF0000246002400230025002040F66A16B14274
:1010000000D100BFC1F3421501F01F03012606FA0B
:1010100003F3012D02D19689334006E0022D02D15F
:10102000168A334001E0968A33400C12012606FAF4
:1010300004F41688344013B10CB1012000E0002004
:1010400070BDF0B50346002400260025002040F6C0
:101050006A17B94200D100BF1846C1F3421401F02B
:101060001F06012707FA06F5012C01D10C3004E018
:10107000022C01D1103000E014301AB107682F4360
:10108000076002E00768AF430760F0BD2DE9F04755
:1010900086B005460E460024A24600BFA1460027A2
:1010A000B08900B100BF2F462C8A4CF6FF70044077
:1010B000F08804432C82AC894EF6F3100440B088CB
:1010C00031890843718908430443AC81AC8A4FF6E7
:1010D000FF400440B0890443AC8201A8FFF702FC42
:1010E0001F48874202D1DDF810A001E0DDF80CA016
:1010F000A88900F4004040B10AEBCA0000EB0A10D6
:1011000031684900B0FBF1F807E00AEBCA0000EBD8
:101110000A1031688900B0FBF1F86420B8FBF0F0E8
:1011200004012009642101FB1089A88900F4004012
:1011300040B1322000EBC900B0FBF1F000F0070035
:10114000044308E0322000EB09106421B0FBF1F009
:1011500000F00F0004432C8106B0BDE8F0870000CA
:101160000038014001468888C0F30800704700BF7E
:10117000FEE700BF7047000010B56FF00400FFF7F6
:10118000EBFC0A4800680A49B0FBF1F00949087015
:101190000846007800EB4001C1EBC0104FF6FF712C
:1011A00001EAC0000449088010BD000008000020CA
:1011B00000127A001C0000201E000020FFF7CEF96C
:1011C000FFF7DAFFFFF73EFDFFF732F9FFF7F6FB17
:1011D000FFF708FD25A201210846FFF79EFA25A288
:1011E00001210220FFF799FA3EE00223234890F9FB
:1011F000002005210120FFF75DFA04232048072184
:1012000002680220FFF756FA1C4890F90000401CC3
:1012100010B96420FFF7B6FA18480078012802D107
:10122000E620FFF7AFFA1548007810B99620FFF7CF
:10123000A9FA13480068002805DD11480068FFF787
:10124000ABFAFFF7CFFC0E480068002806DA0C481E
:1012500000684042FFF7A0FAFFF7DCFC084800688E
:1012600010B90020FFF798FABFE700006469723AEE
:101270000000000073706565643A00000000002003
:10128000040000200000000000000000000000003A
:1012900000000000000000F8000000000000003323
:1012A0003000000000100C06100C060000000000CA
:1012B0000000000040C07840C0784000043F0404B3
:1012C0003F040400007088FC08300000001820FF74
:1012D000211E0000F008F000E018000000211C03AF
:1012E0001E211E0000F00888700000001E2123242B
:1012F0001927211010160E00000000000000000049
:1013000000000000000000E01804020000000007D8
:101310001820400000020418E000000000402018DF
:1013200007000000404080F0804040000202010FB2
:1013300001020200000000F0000000000101011F96
:1013400001010100000000000000000080B07000FA
:10135000000000000000000000000000000101018A
:101360000101010100000000000000000030300019
:1013700000000000000000008060180400601806F3
:101380000100000000E010080810E000000F10202D
:1013900020100F00001010F8000000000020203F77
:1013A0002020000000700808088870000030282401
:1013B00022213000003008888848300000182020A2
:1013C00020110E000000C02010F8000000070424C7
:1013D000243F240000F8088888080800001921200C
:1013E00020110E0000E0108888180000000F112066
:1013F00020110E0000380808C83808000000003F1F
:10140000000000000070880808887000001C22217D
:1014100021221C0000E010080810E000000031222A
:1014200022110F00000000C0C000000000000030CA
:10143000300000000000008000000000000080601C
:10144000000000000000804020100800000102049D
:101450000810200040404040404040000404040484
:101460000404040000081020408000000020100840
:1014700004020100007048080808F0000000003075
:1014800036010000C030C828E810E0000718272403
:1014900023140B000000C038E0000000203C2302B1
:1014A0000227382008F8888888700000203F202014
:1014B00020110E00C0300808080838000718202046
:1014C0002010080008F808080810E000203F20203D
:1014D00020100F0008F88888E8081000203F20201E
:1014E0002320180008F88888E8081000203F200012
:1014F00003000000C030080808380000071820204A
:10150000221E020008F808000008F808203F210108
:1015100001213F20000808F8080800000020203FB3
:101520002020000000000808F8080800C080808023
:101530007F00000008F888C028180800203F20011C
:101540002638200008F8080000000000203F202076
:101550002020300008F8F800F8F80800203F003F8D
:10156000003F200008F830C00008F808203F2000A5
:1015700007183F00E01008080810E0000F102020B6
:1015800020100F0008F808080808F000203F21018B
:1015900001010000E01008080810E0000F182424E2
:1015A00038504F0008F8888888887000203F200055
:1015B000030C30200070880808083800003820210B
:1015C00021221C00180808F8080818000000203F15
:1015D0002000000008F808000008F808001F20207C
:1015E00020201F000878880000C83808000007384D
:1015F0000E010000F80800F80008F800033C07009E
:10160000073C0300081868808068180820302C0305
:10161000032C30200838C800C83808000000203FDC
:101620002000000010080808C838080020382621CB
:1016300020201800000000FE020202000000007FCF
:1016400040404000000C30C00000000000000001DD
:101650000638C00000020202FE00000000404040C8
:101660007F000000000004020202040000000000ED
:10167000000000000000000000000000808080806A
:101680008080808000020204000000000000000052
:1016900000000000000080808080000000192422EB
:1016A00022223F2008F8008080000000003F112027
:1016B00020110E000000008080800000000E11202C
:1016C00020201100000000808088F800000E11200A
:1016D00020103F200000808080800000001F222218
:1016E00022221300008080F0888888180020203F84
:1016F000202000000000808080808000006B949497
:101700009493600008F8008080800000203F210052
:1017100000203F2000809898000000000020203F1B
:1017200020200000000000809898000000C0808009
:10173000807F000008F8000080808000203F2402A5
:101740002D302000000808F8000000000020203F95
:10175000202000008080808080808000203F20004A
:101760003F20003F8080008080800000203F2100DB
:1017700000203F200000808080800000001F20208B
:1017800020201F00808000808000000080FFA120BA
:1017900020110E000000008080808000000E1120CB
:1017A00020A0FF80808080008080800020203F215A
:1017B000200001000000808080808000003324240D
:1017C00024241900008080E0808000000000001FB9
:1017D000202000008080000000808000001F20206A
:1017E00020103F20808080000080808000010E302B
:1017F0000806010080800080008080800F300C038C
:101800000C300F0000808000808080000020312E8E
:101810000E312000808080000080808080818E706A
:101820001806010000808080808080000021302C1C
:101830002221300000000000807C02020000000035
:10184000003F404000000000FF00000000000000DA
:10185000FF0000000002027C800000000040403FCA
:101860000000000000060101020204040000000064
:101870000000000094180008000000203C00000058
:101880006C010008D01800083C0000202C07000064
:1018900088010008000000000000000000A24A04C7
:1018A0000000000000000000010203040607080910
:1018B0000000000000000000000000000000010225
:1018C00003040102030406070809020406080000D5
:04000005080001CD21
:00000001FF
